:0A000E00C0F9A4B0999282F8809026
:10062400020A000002080000010C00040D00000092
:0306340000C10002
:1005DB00D3EF9400EE940040217D647C007B647A21
:1005EB0000EB1B70011AEB4A70F7ED1D70011CED4F
:0A05FB004C70EAEF1F70D91E80D685
:0106050022D2
:10056A00F9F8AF14AE13AD12AC111202BFE47B0A54
:10057A00FAF9F81202BF740E2BF58274003AF58369
:08058A00E493F5807F057E007B
:10059200E4FDFCC3ED9FEC9E50070DBD00010C80F5
:0105A200F266
:0105A3002235
:1004D0008F148E138D128C11C2A0D2A1D2A2D2A3DE
:1004E000E47B64FAF9F8120574D2A0C2A1D2A2D2B8
:1004F000A3E47B0AFA12056AD2A0D2A1C2A2D2A3B7
:10050000E47B0AFAF9F8AF14AE13AD12AC11120580
:100510007DD2A0D2A1D2A2C2A3E47BE87A031205C5
:080520006AD2A37F02020592DA
:10046E00AF8CEFFEAD8A7C00E42DF50BEC3EF50A69
:10047E00E4F58CF58AAC0AAD0B1201C97B9A7A9918
:10048E0079D9783F12001EE4FBFA79C8784212013E
:10049E00271202028F108E0F8D0E8C0DE47F907E30
:1004AE0001FDFCAB10AA0FA90EA80DC312035F50DD
:1004BE000330000DC200E47510F4750F01F50EF552
:0204CE000D22FD
:10052800E47F19FEFDFCAB10AA0FA90EA80DC3129B
:10053800035F502DC2B0C2B17F057E001205DBD229
:10054800B0D2B1D294C295D296C29730A6FDD28CC1
:1005580020A6FDC28C12046E7F107E2712059280A1
:02056800BF22B0
:1005A400E47F19FEFDFCAB10AA0FA90EA80DC3121F
:1005B400035F4022D2B0D2B1D294C295C296D297F0
:1005C40030A6FDD28C20A6FDC28C12046E7F647E00
:0705D4000012059280CA220B
:03000B00020638B2
:09063800758C00758A00D20032B5
:03001B000203FCE1
:1003FC00C0E0C0F0C083C082C0D075D000C000C0C7
:10040C0001C002C003C004C005C006C007758D75CD
:10041C00758B30AF10AE0FAD0EAC0D1204D00509BC
:10042C00E50970020508C3940AE5089400401875A4
:10043C000800750900D2A7000000000000000000B1
:10044C000000000000C2A7D007D006D005D004D011
:10045C0003D002D001D000D0D0D082D083D0F0D045
:02046C00E0327C
:10060600758911E4F58CF58A758D75758B30D2A9CF
:0E061600D2ABD28ED2AF1205A412052880F806
:10001E00EC4D6011E8497017ED33EC3304600DE4DC
:10002E00FCFFFEFD22E933E8330470F802026E1283
:10003E00023958046009E4CC248150062850090284
:10004E000278284003020275C0E0EB4A7044B98082
:10005E0006D0E0FB020264EF4E701CBD8008EBFF81
:10006E00EAFEE9FD80EBE98DF0A4FEE5F002010762
:10007E00E9CDF9EAFEEBFFEF89F0A4FCE5F0CE89BD
:10008E00F0A42EFFE435F0CD89F0A42DFEE435F07A
:10009E008067EF4E7005BD80D780C3EF8BF0A4ACA8
:1000AE00F0EE8BF0A42CFCE435F0F8EF8AF0A42CE3
:1000BE00E5F038FCE433CB8DF0A42CFCE5F03BF8F6
:1000CE00EE8AF0A42CFCE5F038F8E433CF89F0A4E6
:1000DE002CFCE5F038CF3400CE89F0A42FFFE5F0EC
:1000EE003EFEE433C98DF0A42EFEE5F039CD8AF044
:1000FE00A42FFFE5F03EFEE43DFD33D0E0FB5007BC
:10010E000BBB000F020278EC2CFCEF33FFEE33FE3C
:06011E00ED33FD0202506A
:10012400020278EC5D046005E85904700302026E73
:10013400120239580460F6EC4860F2EC7004FDFEDB
:10014400FF22C860DB2481C85009C39860025006AE
:100154000202759850CAF582E9294B4A7005AB82B0
:1001640002026475F0007C1A7880C3EF9BEE9AED6E
:1001740099400DC3EF9BFFEE9AFEED99FDE842F026
:10018400DC23ACF0D0E0FFD0E0FED0E0FDAB822079
:10019400E7101BEB60BAEC2CFCEF33FFEE33FEED03
:1001A40033FD020250E803F830E705C0F075F000B3
:1001B400EF2FFFEE33FEED33FD40B830E7C280AAE7
:1001C40075F020800E75F010800575F0087D007EB6
:1001D400007F003392D530D503120351EC33401025
:1001E400EF33FFEE33FEED33FDEC33FCD5F0ED22BF
:0E01F400E5F0247EA2D513CC92E7CDCEFF22FB
:10020200EDD2E7CD33EC3392D524814006E4FFFEF4
:10021200FDFC22FCE4CFCECDCC24E0501174FF8053
:10022200EDC3CC13CCCD13CDCE13CECF13CF0470F0
:07023200F030D5DE0203519C
:10023900E9D2E7C933E833F892D5EDD2E7CD33EC0B
:0702490033FC5002B2D52284
:10025000EC30E7100FBF000C0EBE00080DBD00040F
:100260000BEB6014A2D5EB13FCED92E7FD2274FFBB
:10027000FCFDFEFF22E480F8A2D574FF13FC7D8014
:03028000E480EF28
:0300000002037088
:0C037000787FE4F6D8FD7581200203B709
:1002830075F008758200EF2FFFEE33FECD33CDCC32
:1002930033CCC58233C5829BED9AEC99E5829840B5
:1002A3000CF582EE9BFEED9AFDEC99FC0FD5F0D692
:1002B300E4CEFBE4CDFAE4CCF9A88222B800C1B9BC
:1002C3000059BA002DEC8BF084CFCECDFCE5F0CBFA
:1002D300F97818EF2FFFEE33FEED33FDEC33FCEB33
:1002E30033FB10D703994004EB99FB0FD8E5E4F9EE
:1002F300FA227818EF2FFFEE33FEED33FDEC33FCDB
:10030300C933C910D7059BE99A4007EC9BFCE99ACE
:10031300F90FD8E0E4C9FAE4CCFB2275F010EF2F13
:10032300FFEE33FEED33FDCC33CCC833C810D70713
:100333009BEC9AE899400AED9BFDEC9AFCE899F84E
:0E0343000FD5F0DAE4CDFBE4CCFAE4C8F922E1
:0E035100C3E49FFFE49EFEE49DFDE49CFC22BD
:10035F00EB9FF5F0EA9E42F0E99D42F0E89C45F0F4
:01036F00226B
:10037C00020606E493A3F8E493A34003F68001F28B
:10038C0008DFF48029E493A3F85407240CC8C33382
:10039C00C4540F4420C8834004F456800146F6DF51
:1003AC00E4800B0102040810204080900624E47EB7
:1003BC00019360BCA3FF543F30E509541FFEE49346
:1003CC00A360010ECF54C025E060A840B8E493A30D
:1003DC00FAE493A3F8E493A3C8C582C8CAC583CA38
:1003EC00F0A3C8C582C8CAC583CADFE9DEE780BEF0
:0106370000C2
:00000001FF
