:0A07C100C0F9A4B0999282F880906C
:1007AD000218000002160000011A00041B000000D0
:0307BD0000C10078
:0806A300C2B0C2B17F057E0068
:1006AB00D3EF9400EE940040217D647C007B647A50
:1006BB0000EB1B70011AEB4A70F7ED1D70011CED7E
:0A06CB004C70EAEF1F70D91E80D6B4
:0106D5002202
:09077C00C28C1205537FE87E03D4
:10078500E4FDFCC3ED9FEC9E50070DBD00010C8000
:01079500F271
:010796002240
:10065C00F9F8AF0BAE0AAD09AC081202E1E47B0A63
:10066C00FAF9F81202E174C12BF58274073AF5839A
:08067C00E493F5807F047E0089
:10068400D3EF9400EE94004015E4FDFC0DBD000191
:0E0694000CED64144C70F5EF1F70E51E80E253
:0106A2002235
:1005B5008F0B8E0A8D098C08C2A0D2A1D2A2D2A31C
:1005C500E47B64FAF9F8120666D2A0C2A1D2A2D2DF
:1005D500A3E47B0AFA12065CD2A0D2A1C2A2D2A3DE
:1005E500E47B0AFAF9F8AF0BAE0AAD09AC081206BE
:1005F5006FD2A0D2A1D2A2C2A3E47BE87A031206ED
:0A0605005CD2A37F017E0002068490
:10055300AF8CEFFEAD8A7C00E42DF519EC3EF51867
:10056300E4F58CF58AAC18AD191201C97B9A7A9916
:1005730079D9783F12001EE4FBFA79C87842120158
:10058300271202028F1E8E1D8D1C8C1BE47F907E12
:1005930001FDFCAB1EAA1DA91CA81BC3120381509D
:1005A3000330000DC200E4751EF4751D01F51CF542
:0205B3001B2209
:040392008E0C8F0D31
:10039600E4F512F513F514F515AE0CAF0DE4FCFDFE
:1003A600AB1EAA1DA91CA81BC3120381503412063A
:1003B600A3D2B0D2B1E50E450F24FF9294E51045C5
:1003C6001124FF9295E50E450F24FF9296E5104500
:1003D6001124FF929730A6FDD28C20A6FD12077C31
:1003E60080B7AE0CAF0DE4FCFDAB1EAA1DA91CA880
:1003F6001BC31203814057AF13AE121206511206E9
:100406000FEF75F00A120283AFF0EF3395E0FEEFBF
:100416002401FD750E00ED5401F50F751000EF5423
:1004260001F5110513E51370020512646445127097
:1004360004F512F513D2B0D2B1D294C295C296D2B7
:0E0446009730A6FDD28C20A6FD12077C809474
:010454002285
:100797001206A3D2B0D2B1D294C295D296C2977F95
:0607A700AC7E0D02068489
:10070500900001E5821582AE83700215834E601854
:100715001206A3D2B0D2B1C294D295C296D2977F17
:08072500AC7E0D12068480DB9E
:01072D0022A9
:03000B000207CB1E
:0907CB00758C00758A00D2003221
:03001B000204E1FB
:1004E100C0E0C0F0C083C082C0D075D000C000C0E1
:1004F10001C002C003C004C005C006C007758D75E8
:10050100758B30AF1EAE1DAD1CAC1B1205B50517AA
:10051100E51770020516C3940AE516940040187594
:100521001600751700D2A7000000000000000000AF
:100531000000000000C2A7D007D006D005D004D02B
:1005410003D002D001D000D0D0D082D083D0F0D05F
:02055100E03296
:030013000206D60C
:1006D600C0E0C083C082C0D075D000C002C003C0D5
:1006E60004C005C006C007120705D007D006D0050E
:0F06F600D004D003D002D0D0D082D083D0E03255
:0300030002072EC3
:10072E00C0E0C0D075D000C002C003C004C005C078
:10073E0006C007120797D007D006D005D004D00305
:07074E00D002D0D0D0E03250
:10075500758911E4F58CF58A758D75758B30D2A97F
:10076500D2AAD2A8D2ABD28ED28AD288D2AF7F19E2
:070775007E0012039280F7E1
:10001E00EC4D6011E8497017ED33EC3304600DE4DC
:10002E00FCFFFEFD22E933E8330470F802026E1283
:10003E00023958046009E4CC248150062850090284
:10004E000278284003020275C0E0EB4A7044B98082
:10005E0006D0E0FB020264EF4E701CBD8008EBFF81
:10006E00EAFEE9FD80EBE98DF0A4FEE5F002010762
:10007E00E9CDF9EAFEEBFFEF89F0A4FCE5F0CE89BD
:10008E00F0A42EFFE435F0CD89F0A42DFEE435F07A
:10009E008067EF4E7005BD80D780C3EF8BF0A4ACA8
:1000AE00F0EE8BF0A42CFCE435F0F8EF8AF0A42CE3
:1000BE00E5F038FCE433CB8DF0A42CFCE5F03BF8F6
:1000CE00EE8AF0A42CFCE5F038F8E433CF89F0A4E6
:1000DE002CFCE5F038CF3400CE89F0A42FFFE5F0EC
:1000EE003EFEE433C98DF0A42EFEE5F039CD8AF044
:1000FE00A42FFFE5F03EFEE43DFD33D0E0FB5007BC
:10010E000BBB000F020278EC2CFCEF33FFEE33FE3C
:06011E00ED33FD0202506A
:10012400020278EC5D046005E85904700302026E73
:10013400120239580460F6EC4860F2EC7004FDFEDB
:10014400FF22C860DB2481C85009C39860025006AE
:100154000202759850CAF582E9294B4A7005AB82B0
:1001640002026475F0007C1A7880C3EF9BEE9AED6E
:1001740099400DC3EF9BFFEE9AFEED99FDE842F026
:10018400DC23ACF0D0E0FFD0E0FED0E0FDAB822079
:10019400E7101BEB60BAEC2CFCEF33FFEE33FEED03
:1001A40033FD020250E803F830E705C0F075F000B3
:1001B400EF2FFFEE33FEED33FD40B830E7C280AAE7
:1001C40075F020800E75F010800575F0087D007EB6
:1001D400007F003392D530D503120373EC33401003
:1001E400EF33FFEE33FEED33FDEC33FCD5F0ED22BF
:0E01F400E5F0247EA2D513CC92E7CDCEFF22FB
:10020200EDD2E7CD33EC3392D524814006E4FFFEF4
:10021200FDFC22FCE4CFCECDCC24E0501174FF8053
:10022200EDC3CC13CCCD13CDCE13CECF13CF0470F0
:07023200F030D5DE0203737A
:10023900E9D2E7C933E833F892D5EDD2E7CD33EC0B
:0702490033FC5002B2D52284
:10025000EC30E7100FBF000C0EBE00080DBD00040F
:100260000BEB6014A2D5EB13FCED92E7FD2274FFBB
:10027000FCFDFEFF22E480F8A2D574FF13FC7D8014
:03028000E480EF28
:03000000020455A2
:0C045500787FE4F6D8FD75812402049C39
:10028300C2D530F707B2D563F0FF05F030E70CB203
:10029300D5F4048463F0FF05F080018430D502F4C3
:0202A300042233
:1002A50075F008758200EF2FFFEE33FECD33CDCC10
:1002B50033CCC58233C5829BED9AEC99E582984093
:1002C5000CF582EE9BFEED9AFDEC99FC0FD5F0D670
:1002D500E4CEFBE4CDFAE4CCF9A88222B800C1B99A
:1002E5000059BA002DEC8BF084CFCECDFCE5F0CBD8
:1002F500F97818EF2FFFEE33FEED33FDEC33FCEB11
:1003050033FB10D703994004EB99FB0FD8E5E4F9CB
:10031500FA227818EF2FFFEE33FEED33FDEC33FCB8
:10032500C933C910D7059BE99A4007EC9BFCE99AAC
:10033500F90FD8E0E4C9FAE4CCFB2275F010EF2FF1
:10034500FFEE33FEED33FDCC33CCC833C810D707F1
:100355009BEC9AE899400AED9BFDEC9AFCE899F82C
:0E0365000FD5F0DAE4CDFBE4CCFAE4C8F922BF
:0E037300C3E49FFFE49EFEE49DFDE49CFC229B
:10038100EB9FF5F0EA9E42F0E99D42F0E89C45F0D2
:010391002249
:10060F00AC21AD22AE23AF247810EC4D4E4F7004C9
:10061F007CA57DA5C3EC13FCED13FDEE13FEEF13CC
:10062F00FF5010EC64CCFCED644CFDEE644EFEEF1D
:10063F0064CEFFD8DF8C218D228E238F24EE547F42
:0D064F00FE228E218F2274A5F523F52422B2
:10046100020755E493A3F8E493A34003F68001F255
:1004710008DFF48029E493A3F85407240CC8C3339C
:10048100C4540F4420C8834004F456800146F6DF6B
:10049100E4800B01020408102040809007ADE47E47
:1004A100019360BCA3FF543F30E509541FFEE49360
:1004B100A360010ECF54C025E060A840B8E493A327
:1004C100FAE493A3F8E493A3C8C582C8CAC583CA52
:1004D100F0A3C8C582C8CAC583CADFE9DEE780BE0A
:0107C0000038
:00000001FF
