:0A022F00C0F9A4B0999282F8809003
:0801C400E493F5807F017E0049
:1001CC00D3EF9400EE940040217D037C007B647A95
:1001DC0000EB1B70011AEB4A70F7ED1D70011CED62
:0A01EC004C70EAEF1F70D91E80D698
:0101F60022E6
:10011600C2A0D2A1D2A2D2A390022F1201C4D2A011
:10012600C2A1D2A2D2A31201C4D2A0D2A1C2A2D28B
:10013600A3AE10AF117C007D0A1200C1742F2DF5FD
:100146008274023CF5831201C4D2A0D2A1D2A2C20B
:10015600A3AE10AF117C007D0A1200C1742F2FF5DB
:100166008274023EF583E493F5807F017E000201EE
:01017600CCBC
:10020E00E4F510F511758901758CFF758AF9D2AF79
:05021E00D2A9D28C22E0
:10000E0012020E120116AF11AE101201B9120177C3
:10001E00EF75F00A12009FAFF0EF3395E0F5088F01
:10002E0009E5092401FF750A00EF5401F50B750C63
:10003E0000E5095401F50DD280D281D291C292C24F
:10004E0093D2947F0A7E001201CC2095B6C280C254
:10005E00817F967E001201CCD280D281E50A450BBB
:10006E0024FF9291E50C450D24FF9292E50A450B73
:10007E0024FF9293E50C450D24FF92947F787E0029
:10008E001201CCC280C2817F967E001201CC02008A
:01009E001150
:03000B000201F7F8
:1001F700C0E00511E5117002051064644510700434
:07020700F510F511D0E03203
:03000000020223D6
:0C022300787FE4F6D8FD75811502000E0E
:10009F00C2D530F707B2D563F0FF05F030E70CB2E9
:1000AF00D5F4048463F0FF05F080018430D502F4A9
:0200BF00042219
:1000C100BC000BBE0029EF8DF084FFADF022E4CC23
:1000D100F875F008EF2FFFEE33FEEC33FCEE9DECEC
:1000E100984005FCEE9DFE0FD5F0E9E4CEFD22ED32
:1000F100F8F5F0EE8420D21CFEADF075F008EF2F7C
:10010100FFED33FD4007985006D5F0F222C398FD6C
:050111000FD5F0EA2209
:10017700AC12AD13AE14AF157810EC4D4E4F7004A2
:100187007CA57DA5C3EC13FCED13FDEE13FEEF1369
:10019700FF5010EC64CCFCED644CFDEE644EFEEFBA
:1001A70064CEFFD8DF8C128D138E148F15EE547F1B
:0D01B700FE228E128F1374A5F514F515228B
:00000001FF
