:0A000E00C0F9A4B0999282F8809026
:1005DF0002150000020D0000020F0000020A0000C9
:0F05EF0002080000010C00041100000000C10010
:1005A500F9F8AF1AAE19AD18AC171202BFE47B0A01
:1005B500FAF9F81202BF740E2BF58274003AF5832E
:0805C500E493F5807F057E0040
:1005CD00E4FDFCC3ED9FEC9E50070DBD00010C80BA
:0105DD00F22B
:0105DE0022FA
:10054D008F1A8E198D188C17C2A0D2A1D2A2D2A348
:10055D00E47B64FAF9F81205AFD2A0C2A1D2A2D2FF
:10056D00A3E47B0AFA1205A5D2A0D2A1C2A2D2A3FE
:10057D00E47B0AFAF9F8AF1AAE19AD18AC171205EB
:10058D00B8D2A0D2A1D2A2C2A3E47BE87A0312050D
:08059D00A5D2A37F020205CDE7
:1004EB00AF8CEFFEAD8A7C00E42DF50BEC3EF50AEC
:1004FB00E4F58CF58AAC0AAD0B1201C97B9A7A999B
:10050B0079D9783F12001EE4FBFA79C878421201C0
:10051B00271202028F148E138D128C11E47F907EA2
:10052B0001FDFCAB14AA13A912A811C312035F504F
:10053B000330000DC200E47514F4751301F512F5C8
:02054B0011227B
:03000B00020003ED
:03000300D20032F6
:03001B0002047963
:10047900C0E0C0F0C083C082C0D075D000C000C049
:1004890001C002C003C004C005C006C007758D7550
:10049900758B30AF14AE13AD12AC1112054D0509B1
:1004A900E50970020508C3940AE508940040187527
:1004B9000800750900D2A700000000000000000034
:1004C9000000000000C2A7D007D006D005D004D094
:1004D90003D002D001D000D0D0D082D083D0F0D0C8
:0204E900E032FF
:1003FC00758911E4F58CF58A758D75758B30D2A9DC
:10040C00D2ABD28ED2AFD2B0D2B2F590E47F46FE50
:10041C00FDFCAB14AA13A912A811C312035F501C44
:10042C0030A6FDD28C20A6FDC28C1204EBE4F59014
:10043C007F107E271205CD75900980D0E47F46FE93
:10044C00FDFCAB14AA13A912A811C312035F401C24
:10045C0030A6FDD28C20A6FDC28C1204EBE4F590E4
:0D046C007F107E271205CD75900B80D022E9
:10001E00EC4D6011E8497017ED33EC3304600DE4DC
:10002E00FCFFFEFD22E933E8330470F802026E1283
:10003E00023958046009E4CC248150062850090284
:10004E000278284003020275C0E0EB4A7044B98082
:10005E0006D0E0FB020264EF4E701CBD8008EBFF81
:10006E00EAFEE9FD80EBE98DF0A4FEE5F002010762
:10007E00E9CDF9EAFEEBFFEF89F0A4FCE5F0CE89BD
:10008E00F0A42EFFE435F0CD89F0A42DFEE435F07A
:10009E008067EF4E7005BD80D780C3EF8BF0A4ACA8
:1000AE00F0EE8BF0A42CFCE435F0F8EF8AF0A42CE3
:1000BE00E5F038FCE433CB8DF0A42CFCE5F03BF8F6
:1000CE00EE8AF0A42CFCE5F038F8E433CF89F0A4E6
:1000DE002CFCE5F038CF3400CE89F0A42FFFE5F0EC
:1000EE003EFEE433C98DF0A42EFEE5F039CD8AF044
:1000FE00A42FFFE5F03EFEE43DFD33D0E0FB5007BC
:10010E000BBB000F020278EC2CFCEF33FFEE33FE3C
:06011E00ED33FD0202506A
:10012400020278EC5D046005E85904700302026E73
:10013400120239580460F6EC4860F2EC7004FDFEDB
:10014400FF22C860DB2481C85009C39860025006AE
:100154000202759850CAF582E9294B4A7005AB82B0
:1001640002026475F0007C1A7880C3EF9BEE9AED6E
:1001740099400DC3EF9BFFEE9AFEED99FDE842F026
:10018400DC23ACF0D0E0FFD0E0FED0E0FDAB822079
:10019400E7101BEB60BAEC2CFCEF33FFEE33FEED03
:1001A40033FD020250E803F830E705C0F075F000B3
:1001B400EF2FFFEE33FEED33FD40B830E7C280AAE7
:1001C40075F020800E75F010800575F0087D007EB6
:1001D400007F003392D530D503120351EC33401025
:1001E400EF33FFEE33FEED33FDEC33FCD5F0ED22BF
:0E01F400E5F0247EA2D513CC92E7CDCEFF22FB
:10020200EDD2E7CD33EC3392D524814006E4FFFEF4
:10021200FDFC22FCE4CFCECDCC24E0501174FF8053
:10022200EDC3CC13CCCD13CDCE13CECF13CF0470F0
:07023200F030D5DE0203519C
:10023900E9D2E7C933E833F892D5EDD2E7CD33EC0B
:0702490033FC5002B2D52284
:10025000EC30E7100FBF000C0EBE00080DBD00040F
:100260000BEB6014A2D5EB13FCED92E7FD2274FFBB
:10027000FCFDFEFF22E480F8A2D574FF13FC7D8014
:03028000E480EF28
:0300000002037088
:0C037000787FE4F6D8FD7581200203B709
:1002830075F008758200EF2FFFEE33FECD33CDCC32
:1002930033CCC58233C5829BED9AEC99E5829840B5
:1002A3000CF582EE9BFEED9AFDEC99FC0FD5F0D692
:1002B300E4CEFBE4CDFAE4CCF9A88222B800C1B9BC
:1002C3000059BA002DEC8BF084CFCECDFCE5F0CBFA
:1002D300F97818EF2FFFEE33FEED33FDEC33FCEB33
:1002E30033FB10D703994004EB99FB0FD8E5E4F9EE
:1002F300FA227818EF2FFFEE33FEED33FDEC33FCDB
:10030300C933C910D7059BE99A4007EC9BFCE99ACE
:10031300F90FD8E0E4C9FAE4CCFB2275F010EF2F13
:10032300FFEE33FEED33FDCC33CCC833C810D70713
:100333009BEC9AE899400AED9BFDEC9AFCE899F84E
:0E0343000FD5F0DAE4CDFBE4CCFAE4C8F922E1
:0E035100C3E49FFFE49EFEE49DFDE49CFC22BD
:10035F00EB9FF5F0EA9E42F0E99D42F0E89C45F0F4
:01036F00226B
:10037C000203FCE493A3F8E493A34003F68001F298
:10038C0008DFF48029E493A3F85407240CC8C33382
:10039C00C4540F4420C8834004F456800146F6DF51
:1003AC00E4800B01020408102040809005DFE47EFD
:1003BC00019360BCA3FF543F30E509541FFEE49346
:1003CC00A360010ECF54C025E060A840B8E493A30D
:1003DC00FAE493A3F8E493A3C8C582C8CAC583CA38
:1003EC00F0A3C8C582C8CAC583CADFE9DEE780BEF0
:0105FE0000FC
:00000001FF
