:0A015C00C0F9A4B0999282F88090D7
:1000EB007C00AF03AE021200037C007D0A120003FA
:1000FB00745C2DF58274013CF583E493F5807F02EB
:02010B007E0074
:10010D00D3EF9400EE648094804015E4FDFC0DBDAA
:10011D0000010CED647D4C70F5EF1F70E31E80E067
:01012D0022AF
:06008E00E9FF3395E0FEDE
:04009400AB07AA0606
:100098007508007509C8E5091509AE087002150844
:1000A8004E603FC2A0D2A1D2A2D2A37C037DE812A7
:1000B80000EDD2A0C2A1D2A2D2A37D641200EBD2DD
:1000C800A0D2A1C2A2D2A37D0A1200EBD2A0D2A1D3
:1000D800D2A2C2A37C007D0AAF03AE021200F802CE
:0200E800009E78
:0100EA0022F3
:10012E00309005790112008E309105790212008E01
:10013E00309205790312008E3093E5790412008E09
:02014E0080DE51
:03000000020150AA
:0C015000787FE4F6D8FD75810902012ECD
:10000300C2D5EC30E709B2D5E4C39DFDE49CFCEE18
:1000130030E715B2D5E4C39FFFE49EFE120039C357
:10002300E49DFDE49CFC800312003930D507C3E452
:060033009FFFE49EFE2287
:10003900BC000BBE0029EF8DF084FFADF022E4CCAB
:10004900F875F008EF2FFFEE33FEEC33FCEE9DEC74
:10005900984005FCEE9DFE0FD5F0E9E4CEFD22EDBA
:10006900F8F5F0EE8420D21CFEADF075F008EF2F04
:10007900FFED33FD4007985006D5F0F222C398FDF5
:050089000FD5F0EA2292
:00000001FF
