:0A05E100C0F9A4B0999282F880904E
:0405F200021000648F
:1005BD00EF4E60147DC87C00ED1D70011CED4C707C
:0805CD00F7EF1F70EB1E80E840
:0105D5002203
:0605EB00E4FF0FBF64FCF9
:0105F10022E7
:10058D008E0C8F0DD3E50D9400E50C6480948040A6
:10059D001E750E00750F7DE50F150F7002150EE51A
:1005AD000F450E70F2E50D150D70D9150C80D52285
:04034B00AB07AA064C
:10034F007C037DE81201CB8F1A7C037DE8AF03AEEF
:10035F00021201CB7E007F64CFCDCFCECCCE120167
:10036F00CB8F1B7C007D64AF03AE021201CB7E00EE
:10037F007F0ACFCDCFCECCCE1201CB8F1CAE02AF2A
:10038F00037C007D0A1201CBE5111511AE1070022E
:10039F0015104E605FC2A0D2A1D2A2D2A3E51A90CF
:1003AF0005E193F5807F0A7E0012058DE4F580D27A
:1003BF00A0C2A1D2A2D2A3E51B93F5807F0A12059A
:1003CF008DE4F580D2A0D2A1C2A2D2A3E51C93F5F1
:1003DF00807F0A12058DE4F580D2A0D2A1D2A2C2ED
:1003EF00A3ED93F58012058DE4F580D2A37F08125B
:0403FF00058D809454
:0104030022D6
:10040400E4F514F51575197B75181475172E751602
:100414003EF508C297C290758911C288C289D2AFCD
:10042400C2A9C28CC2AFE4F58DF58BD2901205EB54
:10043400C2903091FDD28EC200D2A8C28FD2AFE555
:100444008DC3941950033089F6C28EC2A83000526D
:10045400751400850A15E515751500F514E50B42AC
:1004640015E4AC14AD15120111AB19AA18A917A8FB
:100474001612000612014A8E148F15E4FCFD7B301F
:100484007AEC7901F81202207BC07AD479017800E1
:100494001205498E148F15792CAF15AE1412034B27
:1004A400D9F7300003020428E4F514F515AF15AEAE
:0904B4001412034BB29702042854
:030003000205D61D
:0B05D600858D0A858B0BD200C2A83275
:10000600EC4D6011E8497017ED33EC3304600DE4F4
:10001600FCFFFEFD22E933E8330470F80201B61254
:10002600018158046009E4CC248150062850090255
:1000360001C02840030201BDC0E0EB4A7044B9800C
:1000460006D0E0FB0201ACEF4E701CBD8008EBFF52
:10005600EAFEE9FD80EBE98DF0A4FEE5F00200EF93
:10006600E9CDF9EAFEEBFFEF89F0A4FCE5F0CE89D5
:10007600F0A42EFFE435F0CD89F0A42DFEE435F092
:100086008067EF4E7005BD80D780C3EF8BF0A4ACC0
:10009600F0EE8BF0A42CFCE435F0F8EF8AF0A42CFB
:1000A600E5F038FCE433CB8DF0A42CFCE5F03BF80E
:1000B600EE8AF0A42CFCE5F038F8E433CF89F0A4FE
:1000C6002CFCE5F038CF3400CE89F0A42FFFE5F004
:1000D6003EFEE433C98DF0A42EFEE5F039CD8AF05C
:1000E600A42FFFE5F03EFEE43DFD33D0E0FB5007D4
:1000F6000BBB000F0201C0EC2CFCEF33FFEE33FE0E
:06010600ED33FD0201983B
:10010C0075F020800E75F010800575F0087D007E6E
:10011C00007F003392D530D50312026FEC334010C0
:10012C00EF33FFEE33FEED33FDEC33FCD5F0ED2277
:0E013C00E5F0247EA2D513CC92E7CDCEFF22B3
:10014A00EDD2E7CD33EC3392D524814006E4FFFEAD
:10015A00FDFC22FCE4CFCECDCC24E0501174FF800C
:10016A00EDC3CC13CCCD13CDCE13CECF13CF0470A9
:07017A00F030D5DE02026F38
:10018100E9D2E7C933E833F892D5EDD2E7CD33ECC4
:0701910033FC5002B2D5223D
:10019800EC30E7100FBF000C0EBE00080DBD0004C8
:1001A8000BEB6014A2D5EB13FCED92E7FD2274FF74
:1001B800FCFDFEFF22E480F8A2D574FF13FC7D80CD
:0301C800E480EFE1
:030000000204BD3A
:0C04BD00787FE4F6D8FD7581200205046C
:1001CB00BC000BBE0029EF8DF084FFADF022E4CC18
:1001DB00F875F008EF2FFFEE33FEEC33FCEE9DECE1
:1001EB00984005FCEE9DFE0FD5F0E9E4CEFD22ED27
:1001FB00F8F5F0EE8420D21CFEADF075F008EF2F71
:10020B00FFED33FD4007985006D5F0F222C398FD61
:05021B000FD5F0EA22FE
:10022000E88FF0A4CC8BF0A42CFCE98EF0A42CFC7D
:100230008AF0EDA42CFCEA8EF0A4CDA8F08BF0A4FB
:100240002DCC3825F0FDE98FF0A42CCD35F0FCEB5A
:100250008EF0A4FEA9F0EB8FF0A4CFC5F02ECD391F
:0F026000FEE43CFCEAA42DCE35F0FDE43CFC228C
:10054900C2D5E830E70FB2D5E4C39BFBE49AFAE4DD
:1005590099F9E498F8EC30E717B2D512057F120241
:10056900B9E4C39BFBE49AFAE499F9E498F88003A7
:100579001202B930D50DE4C39FFFE49EFEE49DFD50
:04058900E49CFC22D0
:0E026F00C3E49FFFE49EFEE49DFDE49CFC22A0
:1004C900020404E493A3F8E493A34003F68001F241
:1004D90008DFF48029E493A3F85407240CC8C33334
:1004E900C4540F4420C8834004F456800146F6DF03
:1004F900E4800B01020408102040809005F2E47E9C
:10050900019360BCA3FF543F30E509541FFEE493F7
:10051900A360010ECF54C025E060A840B8E493A3BE
:10052900FAE493A3F8E493A3C8C582C8CAC583CAE9
:10053900F0A3C8C582C8CAC583CADFE9DEE780BEA1
:0105F6000004
:10027D0075F008758200EF2FFFEE33FECD33CDCC38
:10028D0033CCC58233C5829BED9AEC99E5829840BB
:10029D000CF582EE9BFEED9AFDEC99FC0FD5F0D698
:1002AD00E4CEFBE4CDFAE4CCF9A88222B800C1B9C2
:1002BD000059BA002DEC8BF084CFCECDFCE5F0CB00
:1002CD00F97818EF2FFFEE33FEED33FDEC33FCEB39
:1002DD0033FB10D703994004EB99FB0FD8E5E4F9F4
:1002ED00FA227818EF2FFFEE33FEED33FDEC33FCE1
:1002FD00C933C910D7059BE99A4007EC9BFCE99AD5
:10030D00F90FD8E0E4C9FAE4CCFB2275F010EF2F19
:10031D00FFEE33FEED33FDCC33CCC833C810D70719
:10032D009BEC9AE899400AED9BFDEC9AFCE899F854
:0E033D000FD5F0DAE4CDFBE4CCFAE4C8F922E7
:00000001FF
