:1000E200D3EF9400EE940040217D647C007B647A1F
:1000F20000EB1B70011AEB4A70F7ED1D70011CED4D
:0A0102004C70EAEF1F70D91E80D682
:01010C0022D0
:10014600E4F510F511758902758C64758A07D2AFCE
:05015600D2A9D28C22A9
:10000E00120146AF11AE101200D7120095EF75F027
:10001E000A12010DAFF0EF3395E0F5088F09E509EF
:10002E002401FF750A00EF5401F50B750C00E5096C
:10003E005401F50DD280D281D291C292C293D29444
:10004E002095C0C280C2817F057E001200E2D28060
:10005E00D281E50A450B24FF9291E50C450D24FF54
:10006E009292E50A450B24FF9293E50C450D24FF71
:10007E0092947F047E001200E2C280C2817F0A7ECB
:07008E00001200E202001164
:03000B0002012FC0
:10012F00C0E00511E51170020510646445107004FC
:07013F00F510F511D0E032CC
:0300000002015B9F
:0C015B00787FE4F6D8FD75811502000ED7
:10010D00C2D530F707B2D563F0FF05F030E70CB27A
:10011D00D5F4048463F0FF05F080018430D502F43A
:02012D000422AA
:10009500AC12AD13AE14AF157810EC4D4E4F700485
:1000A5007CA57DA5C3EC13FCED13FDEE13FEEF134C
:1000B500FF5010EC64CCFCED644CFDEE644EFEEF9D
:1000C50064CEFFD8DF8C128D138E148F15EE547FFE
:0D00D500FE228E128F1374A5F514F515226E
:00000001FF
