:0A000E00C0F9A4B0999282F8809026
:1006F4000216000002140000011800041900000092
:0307040000C10031
:1006AA00D3EF9400EE940040217D647C007B647A51
:1006BA0000EB1B70011AEB4A70F7ED1D70011CED7F
:0A06CA004C70EAEF1F70D91E80D6B5
:0106D4002203
:10067000F9F8AF0BAE0AAD09AC081202E1E47B0A4F
:10068000FAF9F81202E1740E2BF58274003AF58340
:08069000E493F5807F057E0074
:10069800E4FDFCC3ED9FEC9E50070DBD00010C80EE
:0106A800F25F
:0106A900222E
:1005CB008F0B8E0A8D098C08C2A0D2A1D2A2D2A306
:1005DB00E47B64FAF9F812067AD2A0C2A1D2A2D2B5
:1005EB00A3E47B0AFA120670D2A0D2A1C2A2D2A3B4
:1005FB00E47B0AFAF9F8AF0BAE0AAD09AC081206A8
:10060B0083D2A0D2A1D2A2C2A3E47BE87A031206C2
:08061B0070D2A37F02020698D1
:10056900AF8CEFFEAD8A7C00E42DF517EC3EF51655
:10057900E4F58CF58AAC16AD171201C97B9A7A9904
:1005890079D9783F12001EE4FBFA79C87842120142
:10059900271202028F1C8E1B8D1A8C19E47F907E04
:1005A90001FDFCAB1CAA1BA91AA819C3120381508F
:1005B9000330000DC200E4751CF4751B01F51AF532
:0205C9001922F5
:040392008E0C8F0D31
:10039600E4F512F513AE0CAF0DE4FCFDAB1CAA1B85
:1003A600A91AA819C31203815045C2B0C2B17F056C
:1003B6007E001206AAD2B0D2B1E50E450F24FF92F6
:1003C60094E510451124FF9295E50E450F24FF9202
:1003D60096E510451124FF929730A6FDD28C20A6F3
:1003E600FDC28C1205697F107E2712069880A6AE84
:1003F6000CAF0DE4FCFDAB1CAA1BA91AA819C3126D
:1004060003814060AF13AE12120665120623EF7524
:10041600F00A120283AFF0EF3395E0FEEF2401FD00
:10042600750E00ED5401F50F751000EF5401F5112E
:100436000513E51370020512646445127004F51283
:10044600F513D2B0D2B1D294C295C296D29730A645
:10045600FDD28C20A6FDC28C1205697F107E271264
:040466000698808BE9
:01046A00226F
:03000B00020003ED
:03000300D20032F6
:03001B000204F7E5
:1004F700C0E0C0F0C083C082C0D075D000C000C0CB
:1005070001C002C003C004C005C006C007758D75D1
:10051700758B30AF1CAE1BAD1AAC191205CB051588
:10052700E51570020514C3940AE514940040187584
:100537001400751500D2A70000000000000000009D
:100547000000000000C2A7D007D006D005D004D015
:1005570003D002D001D000D0D0D082D083D0F0D049
:02056700E03280
:1006D500758911E4F58CF58A758D75758B30D2A900
:0F06E500D2ABD28ED2AF7F197E0012039280F774
:10001E00EC4D6011E8497017ED33EC3304600DE4DC
:10002E00FCFFFEFD22E933E8330470F802026E1283
:10003E00023958046009E4CC248150062850090284
:10004E000278284003020275C0E0EB4A7044B98082
:10005E0006D0E0FB020264EF4E701CBD8008EBFF81
:10006E00EAFEE9FD80EBE98DF0A4FEE5F002010762
:10007E00E9CDF9EAFEEBFFEF89F0A4FCE5F0CE89BD
:10008E00F0A42EFFE435F0CD89F0A42DFEE435F07A
:10009E008067EF4E7005BD80D780C3EF8BF0A4ACA8
:1000AE00F0EE8BF0A42CFCE435F0F8EF8AF0A42CE3
:1000BE00E5F038FCE433CB8DF0A42CFCE5F03BF8F6
:1000CE00EE8AF0A42CFCE5F038F8E433CF89F0A4E6
:1000DE002CFCE5F038CF3400CE89F0A42FFFE5F0EC
:1000EE003EFEE433C98DF0A42EFEE5F039CD8AF044
:1000FE00A42FFFE5F03EFEE43DFD33D0E0FB5007BC
:10010E000BBB000F020278EC2CFCEF33FFEE33FE3C
:06011E00ED33FD0202506A
:10012400020278EC5D046005E85904700302026E73
:10013400120239580460F6EC4860F2EC7004FDFEDB
:10014400FF22C860DB2481C85009C39860025006AE
:100154000202759850CAF582E9294B4A7005AB82B0
:1001640002026475F0007C1A7880C3EF9BEE9AED6E
:1001740099400DC3EF9BFFEE9AFEED99FDE842F026
:10018400DC23ACF0D0E0FFD0E0FED0E0FDAB822079
:10019400E7101BEB60BAEC2CFCEF33FFEE33FEED03
:1001A40033FD020250E803F830E705C0F075F000B3
:1001B400EF2FFFEE33FEED33FD40B830E7C280AAE7
:1001C40075F020800E75F010800575F0087D007EB6
:1001D400007F003392D530D503120373EC33401003
:1001E400EF33FFEE33FEED33FDEC33FCD5F0ED22BF
:0E01F400E5F0247EA2D513CC92E7CDCEFF22FB
:10020200EDD2E7CD33EC3392D524814006E4FFFEF4
:10021200FDFC22FCE4CFCECDCC24E0501174FF8053
:10022200EDC3CC13CCCD13CDCE13CECF13CF0470F0
:07023200F030D5DE0203737A
:10023900E9D2E7C933E833F892D5EDD2E7CD33EC0B
:0702490033FC5002B2D52284
:10025000EC30E7100FBF000C0EBE00080DBD00040F
:100260000BEB6014A2D5EB13FCED92E7FD2274FFBB
:10027000FCFDFEFF22E480F8A2D574FF13FC7D8014
:03028000E480EF28
:0300000002046B8C
:0C046B00787FE4F6D8FD7581240204B20D
:10028300C2D530F707B2D563F0FF05F030E70CB203
:10029300D5F4048463F0FF05F080018430D502F4C3
:0202A300042233
:1002A50075F008758200EF2FFFEE33FECD33CDCC10
:1002B50033CCC58233C5829BED9AEC99E582984093
:1002C5000CF582EE9BFEED9AFDEC99FC0FD5F0D670
:1002D500E4CEFBE4CDFAE4CCF9A88222B800C1B99A
:1002E5000059BA002DEC8BF084CFCECDFCE5F0CBD8
:1002F500F97818EF2FFFEE33FEED33FDEC33FCEB11
:1003050033FB10D703994004EB99FB0FD8E5E4F9CB
:10031500FA227818EF2FFFEE33FEED33FDEC33FCB8
:10032500C933C910D7059BE99A4007EC9BFCE99AAC
:10033500F90FD8E0E4C9FAE4CCFB2275F010EF2FF1
:10034500FFEE33FEED33FDCC33CCC833C810D707F1
:100355009BEC9AE899400AED9BFDEC9AFCE899F82C
:0E0365000FD5F0DAE4CDFBE4CCFAE4C8F922BF
:0E037300C3E49FFFE49EFEE49DFDE49CFC229B
:10038100EB9FF5F0EA9E42F0E99D42F0E89C45F0D2
:010391002249
:10062300AC21AD22AE23AF247810EC4D4E4F7004B5
:100633007CA57DA5C3EC13FCED13FDEE13FEEF13B8
:10064300FF5010EC64CCFCED644CFDEE644EFEEF09
:1006530064CEFFD8DF8C218D228E238F24EE547F2E
:0D066300FE228E218F2274A5F523F524229E
:100477000206D5E493A3F8E493A34003F68001F2C0
:1004870008DFF48029E493A3F85407240CC8C33386
:10049700C4540F4420C8834004F456800146F6DF55
:1004A700E4800B01020408102040809006F4E47EEB
:1004B700019360BCA3FF543F30E509541FFEE4934A
:1004C700A360010ECF54C025E060A840B8E493A311
:1004D700FAE493A3F8E493A3C8C582C8CAC583CA3C
:1004E700F0A3C8C582C8CAC583CADFE9DEE780BEF4
:0107070000F1
:00000001FF
