:0A08B000C0F9A4B0999282F880907C
:10089C0002230000022100000125000426000000B4
:0308AC0000C10088
:0807B900C2B0C2B17F057E0051
:1007C100D3EF9400EE940040217D647C007B647A39
:1007D10000EB1B70011AEB4A70F7ED1D70011CED67
:0A07E1004C70EAEF1F70D91E80D69D
:0107EB0022EB
:09086B00C28C1206697F887E131D
:10087400E4FDFCC3ED9FEC9E50070DBD00010C8010
:01088400F281
:010885002250
:10077200F9F8AF0BAE0AAD09AC081202E1E47B0A4C
:10078200FAF9F81202E174B02BF58274083AF58393
:08079200E493F5807F0A7E006C
:10079A00D3EF9400EE94004015E4FDFC0DBD00017A
:0E07AA000CED64144C70F5EF1F70E51E80E23C
:0107B800221E
:1006CB008F0B8E0A8D098C08C2A0D2A1D2A2D2A305
:1006DB00E47B64FAF9F812077CD2A0C2A1D2A2D2B1
:1006EB00A3E47B0AFA120772D2A0D2A1C2A2D2A3B0
:1006FB00E47B0AFAF9F8AF0BAE0AAD09AC081207A6
:10070B0085D2A0D2A1D2A2C2A3E47BE87A031207BE
:0A071B0072D2A37F067E0002079A47
:10066900AF8CEFFEAD8A7C00E42DF524EC3EF5233A
:10067900E4F58CF58AAC23AD241201C97B9A7A99E9
:1006890079D9783F12001EE4FBFA79C87842120141
:10069900271202028F298E288D278C26E47F907ECF
:1006A90001FDFCAB29AA28A927A826C3120381505A
:1006B9000330000DC200E47529F4752801F527F50A
:0206C9002622E7
:040392008E0C8F0D31
:10039600E4F512F513F514F515F516F517AE0CAFD1
:1003A6000DE4FCFDAB29AA28A927A826C3120381C0
:1003B6004003020454E517451670220517E5177029
:1003C6000205167F907E0112079AD2B0D2B1C2946E
:1003D600D295D296C2977F2C7E0112079A7F907E85
:1003E6000112079A1207B9D2B0D2B1E50E450F2411
:1003F600FF9294E510451124FF9295E50E450F24D2
:10040600FF9296E510451124FF929730A6FDD28CF7
:1004160020A6FD12086B3091030204D0309203022D
:1004260004D03093030204D0AE0CAF0DE4FCFDAB58
:1004360029AA28A927A826C312038150030203A3C9
:10044600C2B0C2B17F707E1712079A0203A3AE0C28
:10045600AF0DE4FCFDAB29AA28A927A826C31203E1
:10046600814067AF13AE12120767120725EF75F0CA
:100476000A120283AFF0EF3395E0FEEF2401FD751B
:100486000E00ED5401F50F751000EF5401F511053E
:1004960013E51370020512646445127004F512F533
:1004A60013D2B0D2B1D294C295C296D29730A6FDDD
:1004B600D28C20A6FDC28C1206697F107E271208F8
:0A04C6007420910620920330938405
:0104D0002209
:100886001207B9D2B0D2B1D294C295D296C2977F8E
:06089600AC7E0D02079A82
:10081B00900001E5821582AE83700215834E60183D
:10082B001207B9D2B0D2B1C294D295C296D2977FE9
:08083B00AC7E0D12079A80DB70
:010843002292
:03000B000208BA2E
:0908BA00758C00758A00D2003231
:03001B000205F7E4
:1005F700C0E0C0F0C083C082C0D075D000C000C0CA
:1006070001C002C003C004C005C006C007758D75D0
:10061700758B30AF29AE28AD27AC261206CB052245
:10062700E52270020521C3940AE52194004018755C
:100637002100752200D2A700000000000000000082
:100647000000000000C2A7D007D006D005D004D014
:1006570003D002D001D000D0D0D082D083D0F0D048
:02066700E0327F
:030013000207ECF5
:1007EC00C0E0C083C082C0D075D000C002C003C0BE
:1007FC0004C005C006C00712081BD007D006D005E0
:0F080C00D004D003D002D0D0D082D083D0E0323D
:03000300020844AC
:10084400C0E0C0D075D000C002C003C004C005C061
:1008540006C007120886D007D006D005D004D003FE
:07086400D002D0D0D0E03239
:1004D100758911E4F58CF58A758D75758B30D2A906
:1004E100D2AAD2A8D2ABD28ED28AD288D2AF30A62B
:1004F100FDD28C20A6FD12086B20900920910620C8
:10050100920330935C309004C2B0C2B130931FD2D9
:10051100B0D2B1D294C295D296C2977FE87E03122F
:10052100079AD2B0D2B1D294C295C296D2973092E4
:100531000CD2B0D2B1C294D295D296C2973091B9B1
:10054100D2B0D2B1C294D295C296D2977FE87E033F
:1005510012079AD2B0D2B1D294C295C296D29780E4
:0A056100987F1B7E00120392808F2A
:10001E00EC4D6011E8497017ED33EC3304600DE4DC
:10002E00FCFFFEFD22E933E8330470F802026E1283
:10003E00023958046009E4CC248150062850090284
:10004E000278284003020275C0E0EB4A7044B98082
:10005E0006D0E0FB020264EF4E701CBD8008EBFF81
:10006E00EAFEE9FD80EBE98DF0A4FEE5F002010762
:10007E00E9CDF9EAFEEBFFEF89F0A4FCE5F0CE89BD
:10008E00F0A42EFFE435F0CD89F0A42DFEE435F07A
:10009E008067EF4E7005BD80D780C3EF8BF0A4ACA8
:1000AE00F0EE8BF0A42CFCE435F0F8EF8AF0A42CE3
:1000BE00E5F038FCE433CB8DF0A42CFCE5F03BF8F6
:1000CE00EE8AF0A42CFCE5F038F8E433CF89F0A4E6
:1000DE002CFCE5F038CF3400CE89F0A42FFFE5F0EC
:1000EE003EFEE433C98DF0A42EFEE5F039CD8AF044
:1000FE00A42FFFE5F03EFEE43DFD33D0E0FB5007BC
:10010E000BBB000F020278EC2CFCEF33FFEE33FE3C
:06011E00ED33FD0202506A
:10012400020278EC5D046005E85904700302026E73
:10013400120239580460F6EC4860F2EC7004FDFEDB
:10014400FF22C860DB2481C85009C39860025006AE
:100154000202759850CAF582E9294B4A7005AB82B0
:1001640002026475F0007C1A7880C3EF9BEE9AED6E
:1001740099400DC3EF9BFFEE9AFEED99FDE842F026
:10018400DC23ACF0D0E0FFD0E0FED0E0FDAB822079
:10019400E7101BEB60BAEC2CFCEF33FFEE33FEED03
:1001A40033FD020250E803F830E705C0F075F000B3
:1001B400EF2FFFEE33FEED33FD40B830E7C280AAE7
:1001C40075F020800E75F010800575F0087D007EB6
:1001D400007F003392D530D503120373EC33401003
:1001E400EF33FFEE33FEED33FDEC33FCD5F0ED22BF
:0E01F400E5F0247EA2D513CC92E7CDCEFF22FB
:10020200EDD2E7CD33EC3392D524814006E4FFFEF4
:10021200FDFC22FCE4CFCECDCC24E0501174FF8053
:10022200EDC3CC13CCCD13CDCE13CECF13CF0470F0
:07023200F030D5DE0203737A
:10023900E9D2E7C933E833F892D5EDD2E7CD33EC0B
:0702490033FC5002B2D52284
:10025000EC30E7100FBF000C0EBE00080DBD00040F
:100260000BEB6014A2D5EB13FCED92E7FD2274FFBB
:10027000FCFDFEFF22E480F8A2D574FF13FC7D8014
:03028000E480EF28
:0300000002056B8B
:0C056B00787FE4F6D8FD7581290205B206
:10028300C2D530F707B2D563F0FF05F030E70CB203
:10029300D5F4048463F0FF05F080018430D502F4C3
:0202A300042233
:1002A50075F008758200EF2FFFEE33FECD33CDCC10
:1002B50033CCC58233C5829BED9AEC99E582984093
:1002C5000CF582EE9BFEED9AFDEC99FC0FD5F0D670
:1002D500E4CEFBE4CDFAE4CCF9A88222B800C1B99A
:1002E5000059BA002DEC8BF084CFCECDFCE5F0CBD8
:1002F500F97818EF2FFFEE33FEED33FDEC33FCEB11
:1003050033FB10D703994004EB99FB0FD8E5E4F9CB
:10031500FA227818EF2FFFEE33FEED33FDEC33FCB8
:10032500C933C910D7059BE99A4007EC9BFCE99AAC
:10033500F90FD8E0E4C9FAE4CCFB2275F010EF2FF1
:10034500FFEE33FEED33FDCC33CCC833C810D707F1
:100355009BEC9AE899400AED9BFDEC9AFCE899F82C
:0E0365000FD5F0DAE4CDFBE4CCFAE4C8F922BF
:0E037300C3E49FFFE49EFEE49DFDE49CFC229B
:10038100EB9FF5F0EA9E42F0E99D42F0E89C45F0D2
:010391002249
:10072500AC18AD19AE1AAF1B7810EC4D4E4F7004D6
:100735007CA57DA5C3EC13FCED13FDEE13FEEF13B5
:10074500FF5010EC64CCFCED644CFDEE644EFEEF06
:1007550064CEFFD8DF8C188D198E1A8F1BEE547F4F
:0D076500FE228E188F1974A5F51AF51B22BF
:100577000204D1E493A3F8E493A34003F68001F2C5
:1005870008DFF48029E493A3F85407240CC8C33385
:10059700C4540F4420C8834004F456800146F6DF54
:1005A700E4800B010204081020408090089CE47E40
:1005B700019360BCA3FF543F30E509541FFEE49349
:1005C700A360010ECF54C025E060A840B8E493A310
:1005D700FAE493A3F8E493A3C8C582C8CAC583CA3B
:1005E700F0A3C8C582C8CAC583CADFE9DEE780BEF3
:0108AF000048
:00000001FF
